:1000000059C073C09FC071C070C06FC06EC06DC05A
:100010006CC06BC06AC069C068C067C066C00501BB
:100020000906A101050719E029E715002501750159
:1000300095088102950175082565190029658100DB
:10004000C004030904240369006D0061006B0065AE
:1000500000700072006F006A006500630074007336
:10006000002E0063006F006D0016034800610075EC
:10007000006E0074006500640055005300420012D9
:1000800001100100000008424231E10001010200BC
:100090000109022200010100801909040000010386
:1000A000000000092101010001222300070581034E
:1000B00008000A0011241FBECFE5D2E0DEBFCDBF8D
:1000C00010E0A0E6B0E0ECECFBE002C005900D9281
:1000D000A836B107D9F710E0A8E6B0E001C01D923C
:1000E000A83AB107E1F76CD26FC58ACFA82FB92F14
:1000F00080E090E041E050EA60956F5F58F42D9108
:1001000038EF82279795879510F0842795273F5FD2
:10011000C8F3F3CF0895EADF8D939D930895A6E089
:1001200088279927AA9569F00197E1F3B399FCCF45
:10013000B39BFECF81E09927A6B3019611F0A87179
:10014000D9F70895CF93CFB7CF93B39BFECFB39B8F
:100150000BC0B39B09C0B39B07C0B39B05C0B39B47
:1001600003C0B39B01C0D5C00F92DF93C0918B0039
:10017000DD27CE56DF4F012EB39B03C0DF910F90DA
:10018000E6CF2F930F931F934F932FEF4F6F06B32D
:1001900003FB20F95F933F9350E03BE065C016B34B
:1001A0000126502953FDC89556B3012703FB25F9B5
:1001B0002F7306B3B1F05027102713FB26F906B2B0
:1001C0002230F0F000C016B3012703FB27F9012607
:1001D000502906B22430E8F54F77206816B30000A6
:1001E000F6CF50274F7D206206B2102F000000C0CE
:1001F00006B300265029102713FB26F906B2E2CFDA
:100200004F7B06B3206400C0DACF01265029187155
:1002100006B269F14E7F2160012F16B328C0002677
:1002200050294D7F06B22260102F29C00126502987
:100230004B7F06B22460012F2DC016B30126502932
:10024000477F2860000006B22EC04F7E06B32061B3
:1002500030C0422706B3499300265029102706B222
:100260004FEF13FB20F9297F16B379F2187159F17A
:100270000126502906B2012703FB21F9237F06B38B
:1002800071F2002650293150D0F006B2102713FB2E
:1002900022F9277E16B351F201265029012703FBCC
:1002A00006B223F92F7C49F2000006B3102713FB96
:1002B00024F90026502906B22F7939F270CF10E2C6
:1002C0001ABF002719C03B503195C31BD04010E224
:1002D0001ABF0881033C09F10B34F9F02091890021
:1002E0001981110F1213EDCF4A81441F093651F1C4
:1002F0000D3211F0013E29F7009390003F915F917C
:100300004F911F910F912F91DF910F90CAB7C5FDAB
:100310001CCFCF91CFBFCF911895009190000023B3
:1003200069F310918E00112379F534307AF130930E
:100330008E0000938A0010918B003BE0311B3093BC
:100340008B0024C000918E000130F4F40AE54F7058
:1003500049F43091650034FD1AC000936500C3E78D
:10036000D0E019C03091660034FD11C000936600E2
:10037000CEE7D0E010C0052710E000C021C005275F
:1003800010E0C89508BB14C03AE501C032ED032E59
:10039000C0E0D0E032E017B31861C39A08B317BBCE
:1003A00058E120E84FEF20FF052708BB2795179558
:1003B0001C3F28F700004552B0F720FF052727957E
:1003C00008BB17951C3FB8F629913A9561F7077E4F
:1003D00010918F00110F08BBC250D04011F0109344
:1003E000890010E21ABF086017B3177E402F477EBE
:1003F00054E05A95F1F708BB17BB48BB7FCFAF92CB
:10040000BF92CF92DF92EF92FF920F931F937B01E7
:100410008C01AAE0EE0CFF1C001F111FAA95D1F75A
:100420002FEF3FEF4FEF5FE7E222F3220423152384
:100430005B016C01FFE0AA0CBB1CCC1CDD1CFA9517
:10044000D1F7A222B322C422D5229B01AC01E5E15F
:100450005595479537952795EA95D1F7A21AB30A8E
:10046000C40AD50ABC01992777FD9095892FA60E5D
:10047000B71EC81ED91EAE18BF08C00AD10AD7FEC3
:1004800008C08FEF9FEFAFEFBFE7A80EB91ECA1EDF
:10049000DB1EB501C6011F910F91FF90EF90DF9019
:1004A000CF90BF90AF900895DDD2AA2797FDA09579
:1004B000BA2FBC01CD01A3DF607080709070BDE0E9
:1004C0009595879577956795BA95D1F761157105DB
:1004D0008105910509F44CC06130710581059105D4
:1004E00011F429E414C0623071058105910511F4FD
:1004F0002AE214C06330710581059105D9F1643099
:1005000071058105910511F423E515C020E06530E2
:1005100071058105910511F42BE20DC0663071055E
:100520008105910511F42CE406C067307105810541
:10053000910509F429E330916D00332311F080E037
:100540000FC080917000882311F4822F09C083307E
:1005500011F490E001C099E3815080937000892FDD
:100560003F5F30936D0010926A0080936B00089596
:1005700029E3CDCF2CE2DFCFFC018AE690E0909317
:100580008D0080938C00808180768032B9F48181E7
:10059000813019F489DF82E00895823041F48CE6DD
:1005A00090E090938D0080938C0081E008958A30D4
:1005B00029F4838180936C0080E0089580E00895A1
:1005C0001F93CF93DF9380E090E05BD28F3F09F0E1
:1005D00081BFBB9A20E043EB51EFCA010197F1F7CD
:1005E0002F5F2431D1F7BB982EE088E190E00FB661
:1005F000F894A89581BD0FBE21BD8BE080BF88EC2B
:1006000090E090936F0080936E0083E08093700081
:100610008BD0789414E0CCE3D0E0A895B0D0809152
:10062000660084FF09C080916D00823028F43CDFB1
:100630008AE690E062E080D008B602FEEECF18BFF6
:100640008091680090916900019690936900809371
:10065000680020916E0030916F0082179307E8F2D6
:1006600001D28D5E944F90936F0080936E008091C5
:100670007000823020F0D0936F00C0936E00109213
:1006800069001092680010926D00C7CFDF92EF9260
:10069000FF920F931F93CF93DF9310E8D12E00E0CA
:1006A000EE24FF241D2D100F11BF39DDEC0189E070
:1006B000C433D8070CF0102FD6940894E11CF11C19
:1006C00088E0E816F10411F0012FECCF115011BFB2
:1006D0001F5FE12EFF240894E11CF11C13C01FDDF5
:1006E0009C012453394037FF03C0309521953F4F7B
:1006F0002C173D0714F09E0101C011B781B78F5F21
:1007000081BFE90181B790E0E816F90644F711BF0F
:1007100061B780E090E0BDD1DF91CF911F910F9143
:10072000FF90EF90DF900895AC9A8BB780628BBFFB
:1007300083EC80937E0008951F93DC01162F809137
:10074000660084FF0AC080917E0098E88927809324
:100750007E00912FEFE7F0E007C08AE58093660006
:10076000F8CF8D91819391509923D9F78FE790E03D
:10077000612FD1DC1C5F109366001F9108950F93C9
:100780001F93CF93DF9390918E0019160CF0B7C092
:1007900020918B0080918A008D3209F0A6C08AE5F5
:1007A000809365009B3009F0A0C0CCE0D0E0C21B74
:1007B000D109CE56DF4F8881807609F088C010922B
:1007C0007C008981882359F410927D008CE790E0A9
:1007D00090938D0080938C0090E822E07FC085305C
:1007E00021F48A8180938F0070C0863009F052C056
:1007F0008B81813049F48FE790E090938D00809356
:100800008C0090EC22E16AC0823049F481E990E0EA
:1008100090938D0080938C0090EC22E25FC0833037
:1008200019F58A81882349F481E490E090938D0042
:1008300080938C0090EC24E051C0813049F485E431
:1008400090E090938D0080938C0090EC24E246C061
:10085000823009F041C089E690E090938D0080934A
:100860008C0090EC26E13AC0813249F483EA90E0B2
:1008700090938D0080938C0090EC29E02FC0823201
:1008800059F58EE190E090938D0080938C0090EC70
:1008900023E224C0883019F481E990E00AC089304D
:1008A00021F48A818093910010C08A3049F48CE74A
:1008B00090E090938D0080938C0090E821E00EC032
:1008C0008B3019F483EC80937E0090E806C0CE0153
:1008D00053DE282F90E802C090EC20E08F8188231F
:1008E00039F48E81821728F003C090E880E001C0BF
:1008F000822F909372008093640010928E008091FA
:10090000650084FF49C0809164008F3F09F444C0B2
:10091000182F893008F018E0811B809364008091C3
:10092000720080FD02C00BE401C003EC8F5F809376
:10093000720020918C0030918D0086FD05C0D90198
:10094000912FE4E7F0E011C0A4E7B0E080E090E090
:1009500006C0F901E80FF91FE491ED93019618170D
:10096000C1F705C08D91819391509923D9F7F90171
:10097000E10FF11DF0938D00E0938C0084E790E08F
:10098000612FC9DB183019F08FEF8093640000935A
:1009900073001C5F109365009AE086B3887131F490
:1009A0009150D9F710928F001092890010E099238E
:1009B00009F411E080917100811729F0112309F4E5
:1009C00065DE10937100DF91CF911F910F91089513
:1009D000A0E0B0E0EDEEF4E0A6C0EC01A880B980A4
:1009E000CA80DB80A114B104C104D10441F484E2C3
:1009F000A82E89EDB82E8BE5C82E87E0D82EC6012B
:100A0000B5012DE133EF41E050E06AD027EA31E44F
:100A100040E050E04CD07B018C01C601B5012DE1D6
:100A200033EF41E050E05CD0CA01B9012CEE34EF65
:100A30004FEF5FEF3CD06E0D7F1D801F911F97FF22
:100A400004C06150704080409048688379838A83F5
:100A50009B839B013F77C901CDB7DEB7EAE07FC03A
:100A6000B7DF089580E690E0B3DF0895A0E0B0E03E
:100A70008093600090936100A0936200B093630044
:100A80000895E199FECF9FBB8EBBE09A99278DB365
:100A90000895262FE199FECF1CBA9FBB8EBB2DBBBC
:100AA0000FB6F894E29AE19A0FBE01960895FF27D7
:100AB000EE27BB27AA2760FF04C0A20FB31FE41FC5
:100AC000F51F220F331F441F551F96958795779565
:100AD000679589F70097760771F7CF01BD010895F3
:100AE00097FB092E05260ED057FD04D04BD00AD017
:100AF000001C38F450954095309521953F4F4F4F4D
:100B00005F4F0895F6F790958095709561957F4FAA
:100B10008F4F9F4F08952F923F924F925F926F9207
:100B20007F928F929F92AF92BF92CF92DF92EF927D
:100B3000FF920F931F93CF93DF93CDB7DEB7CA1BFE
:100B4000DB0B0FB6F894DEBF0FBECDBF09942A8829
:100B5000398848885F846E847D848C849B84AA84D1
:100B6000B984C884DF80EE80FD800C811B81AA815E
:100B7000B981CE0FD11D0FB6F894DEBF0FBECDBF29
:100B8000ED010895A1E21A2EAA1BBB1BFD010DC0A9
:100B9000AA1FBB1FEE1FFF1FA217B307E407F5072D
:100BA00020F0A21BB30BE40BF50B661F771F881F09
:100BB000991F1A9469F760957095809590959B019F
:0C0BC000AC01BD01CF010895F894FFCFF7
:080BCC0001000000FF5A5A006D
:00000001FF
